:020000040800F2
:10000000783700205D540008D9050008DB0500089A
:10001000DF050008E3050008E70500080000000010
:10002000000000000000000000000000EB050008D8
:10003000ED05000800000000EF050008F1050008CC
:100040007754000877540008775400087754000864
:100050007754000877540008775400087754000854
:100060007754000877540008775400087754000844
:100070007754000877540008775400087754000834
:100080007754000877540008775400087754000824
:100090007754000877540008775400087754000814
:1000A0007754000877540008775400087754000804
:1000B00077540008E151000877540008775400088D
:1000C00077540008775400087754000877540008E4
:1000D00077540008D3530008775400087754000879
:1000E00077540008775400087754000877540008C4
:1000F00077540008775400087754000877540008B4
:1001000077540008775400087754000877540008A3
:100110007754000877540008775400087754000893
:100120007754000877540008775400087754000883
:100130007754000877540008775400087754000873
:100140007754000877540008775400087754000863
:100150007754000877540008775400087754000853
:100160007754000877540008775400087754000843
:100170007754000877540008775400087754000833
:10018000775400087754000800F002F800F04FF8A8
:100190000AA090E8000C82448344AAF10107DA45E2
:1001A00001D100F044F8AFF2090EBAE80F0013F0E5
:1001B000010F18BFFB1A43F001031847843B0100ED
:1001C000A43B0100103A24BF78C878C1FAD852077E
:1001D00024BF30C830C144BF04680C6070470000C1
:1001E0000023002400250026103A28BF78C1FBD840
:1001F000520728BF30C148BF0B607047662909F01D
:100200003981642907F0B287782907F0EB8700204D
:1002100070471FB509F029F908F050FB04000020D1
:10022000002109F095F8E0601FBD10B510BD08F081
:1002300049FC1146FFF7EDFF00F008F808F067FCF5
:1002400003B4FFF7F2FF03BC05F060F82DED048B5B
:1002500094B000264FF4A06005F020F9A82004F027
:10026000D5FF4FF4E13005F05EF800F0C9FA04F074
:1002700009FF01F072F853214FF6FF7004F084FF7C
:100280004FF478409A4908809AA010210B46C82262
:10029000CDE9001032211E2004F0B4FE99A01021F7
:1002A0000B46C822CDE9001046211E2004F0AAFE0C
:1002B00098A010210B46C822CDE900105A211E201B
:1002C00004F0A0FE98A010210B46C822CDE9001032
:1002D0006E211E2004F096FE96A010210B46C82227
:1002E000CDE9001082211E2004F08CFE95A0102183
:1002F0000B46C822CDE90010A0211E2004F082FE8A
:100300001F207B4908800123002299020FA807F0D3
:10031000B9FDECE0002004F0D3FE0546012D7DD1AF
:1003200000245AE000EE104AB8EE400ADFED890AD8
:1003300020EE200ADFED880A80EE201AF0EE418AD6
:10034000B0EE680A07F06AF99FED849AF2EE040AAB
:1003500000EE809A00EE104AB8EE400ADFED7D0A0A
:1003600020EE200AF1EE000A20EE200ADFED7A0AE4
:1003700080EE201AF0EE418AB0EE680A07F04EF9DE
:10038000F3EE0E0A00EE809A00EE104AB8EE400A34
:10039000DFED700A20EE200AF2EE000A20EE200ABD
:1003A000DFED6D0A80EE201AF0EE418AB0EE680AA9
:1003B00007F0C8F8DFED6A0A00EE809A694901EBA0
:1003C000C40080ED009A9FED680A6000401C01EBBC
:1003D000800080ED000A601C84B2B4F5806FA1DB60
:1003E0000021624806F052FB0020614908705D4917
:1003F0000FA807F029FD5D4806F04CFB5C49097821
:1004000000EB014000EE100AB8EE408A9FED590A59
:10041000C8EE000A10EE907A384600E054E008F08A
:10042000B3FF41EC100BB0EE409AF0EE609A53EC43
:10043000192B51A102A807F085FE02A810210B4636
:100440006422CDE90010A0217E2004F0DBFD4FF4F2
:1004500080624C49434807F04DF99FED460AC8EECB
:10046000000A10EE907A384608F08EFF41EC100B2F
:10047000B0EE409AF0EE609A53EC192B4FF4806185
:1004800041A007F053FE49A007F050FE002417E0FA
:100490003C4800EB840090ED000A10EE101A08466C
:1004A00008F072FF41EC100BB0EE409AF0EE609A4B
:1004B00053EC192B214641A007F038FE601C84B292
:1004C000B4F5806FE4DB02E00A2004F0FFFE701C4C
:1004D000C6B20A2096FBF0F100FB116038B93D4826
:1004E000006808B9012000E000203A49086011E7DF
:1004F000180000206D63756465762053544D3332C7
:10050000463400004453502046465420544553542A
:10051000000000006D63756465762E74616F626122
:100520006F2E636F6D000000323031352F30392F60
:10053000320000004B4559303A52756E2046465401
:10054000000000004646542072756E74696D653A6D
:1005500000000000DB0FC940000080440000C842DA
:10056000000048423C000020000000000004004061
:100570000000002000007A4425302E33666D730D94
:100580000A0000003C2000200D0A256420706F69DD
:100590006E74204646542072756E74696D653A25F6
:1005A000302E33666D730D0A00000000464654205D
:1005B000526573756C743A0D0A0000006666745FCC
:1005C0006F75747075746275665B25645D3A256637
:1005D0000D0A0000A4824242704700BFFEE700BF40
:1005E000FEE700BFFEE700BFFEE7704770477047B9
:1005F000704700000CB5002001900090754800681D
:1006000040F480307349086000BF7248006800F40D
:10061000003000900198401C0190009818B9019892
:10062000B0F5A04FF1D16B48006810F4003F02D044
:100630000120009001E0002000900098012845D1A1
:1006400064484030006840F08050624940310860A2
:100650006148006840F440405F4908605D480830E8
:1006600000685C49083108600846006840F40040B2
:1006700008600846006840F4A05008605748091F09
:100680000860081F006840F08070091F086000BF04
:100690005048006810F0007FFAD040F205705049D1
:1006A00008604C480830006820F0030049490831D0
:1006B00008600846006840F00200086000BF454836
:1006C0000830006800F00C000828F8D10CBD10B507
:1006D0004448006840F47000424908603D480068A2
:1006E00040F001003B49086000203A4908310860A9
:1006F000384800683C490840364908603B48091DB5
:100700000860081F006820F48020091F086000208E
:1007100030490C310860FFF76DFF4FF00060314940
:100720008039086010BD70B500200022022300242B
:100730000221284D08352D6805F00C0020B1042851
:1007400006D0082834D107E0294D2A4E356033E021
:10075000294D284E35602FE01E4D2D1D2D68C5F307
:1007600080541C4D2D1D2D6805F03F0154B1224DC4
:10077000B5FBF1F5174E361D3668C6F3881605FB36
:1007800006F209E01A4DB5FBF1F5124E361D36683A
:10079000C6F3881605FB06F20E4D2D1D2D68C5F318
:1007A00001456D1C6B00B2FBF3F5124E356003E0A2
:1007B0000F4D104E356000BF00BF064D08352D6847
:1007C000C5F303150D4E705D0A4D2D68C540094EE9
:1007D000356070BD0038024000700040085440078A
:1007E000003C024088ED00E0FFFFF6FE10300024E0
:1007F0000024F4000400002000127A000800002009
:100800001CB50121202005F0CDFC4FF4C060009004
:1008100001208DF8040000208DF8060003208DF8DB
:10082000050001208DF807006946044804F02EFFFA
:100830004FF4C061014804F0A5FF1CBD0014024044
:1008400001B5BDF800000090BDF80000F749088030
:1008500008BD01B5BDF800000090BDF80000F449E6
:10086000088008BD08B5F24800880090BDF8000077
:1008700008BD03B5BDF80000EC490880BDF80400D0
:100880004FF0D841A1F880000CBD01B5BDF80000C3
:10089000FFF7D6FF052004F0D3FCFFF7E3FF08BD08
:1008A000E4480089E14908807047E14908807047C1
:1008B00030B5014601F01F04C1F34513CA0AE50231
:1008C00005EB43151544A8B230BD00BF0100A0F1EF
:1008D0000102D0B2FAD1704730B504460D46D54872
:1008E0008088A0F51341413905D0D2488088A0F511
:1008F000A641103914D1CF494889FFF7A1FF201232
:10090000FFF7A7FFE0B2FFF7A4FFCA498889FFF706
:1009100097FF2812FFF79DFFE8B2FFF79AFF5DE00F
:10092000C4488088A0F5D04104391DD1C1488079E0
:10093000012804D1BF480088401E001B84B2BD4975
:100940004889FFF77DFF2012FFF783FFE0B2FFF732
:1009500080FFB8498889FFF773FF2812FFF779FFF6
:10096000E8B2FFF776FF39E0B2488088A0F5AA41E7
:10097000103920D1AF494889FFF762FF2012FFF7F5
:1009800068FFAC494989491C88B2FFF759FFE0B2BA
:10099000FFF75FFFA7498889FFF752FF2812FFF78B
:1009A00058FFA4498989491C88B2FFF749FFE8B27A
:1009B000FFF74FFF12E09F488079012804D19D483E
:1009C0000088401E001B84B29A4948892146FFF7DF
:1009D00050FF984988892946FFF74BFF30BD3EB547
:1009E00004460D4600200290019000909148008836
:1009F000A04203DD8F484088A84201DC00203EBDB4
:100A000029462046FFF768FF8A488088A0F51341F1
:100A100041390BD087488088A0F5D041043905D0F2
:100A200084488088A0F5A641103903D12E20FFF715
:100A300007FF0DE07F488088A0F5AA41103904D156
:100A40004FF43850FFF7FCFE02E02220FFF7F8FEDB
:100A500078488088A0F51341203902D10220FFF7A1
:100A600034FFFFF7FFFE0220FFF72FFFFFF7FAFE2C
:100A7000029070488088A0F5134141390BD06D4831
:100A80008088A0F5A641103905D06A488088A0F575
:100A9000AA41103910D10220FFF717FFFFF7E2FE3D
:100AA0000090BDF80800C0B20190BDF804004FF6F8
:100AB000FF7101EA002001905E488088A0F5134193
:100AC000253917D05B488088A0F58A41353911D087
:100AD00058488088A0F58A4131390BD05548808824
:100AE000A0F53541053905D052488088A0F545412B
:100AF000053902D1BDF8080081E74E488088A0F58D
:100B0000134141390BD04B488088A0F5A6411039DC
:100B100005D048488088A0F5AA4110390DD1BDF80C
:100B20000800C012C002BDF80410891240EA41104A
:100B3000BDF8001040EAE12061E7BDF80800FFF7CA
:100B4000B7FE5CE700B53B488088A0F5134141390A
:100B50000BD038488088A0F5D041043905D03548FD
:100B60008088A0F5A641103903D12920FFF768FE3F
:100B70000FE030488088A0F5AA41103904D14FF425
:100B80002450FFF75DFE04E040F273110720FFF7E9
:100B900070FE00BD00B527488088A0F5134141399B
:100BA0000BD024488088A0F5D041043905D02148D5
:100BB0008088A0F5A641103903D12820FFF740FE18
:100BC0000EE01C488088A0F5AA41103904D14FF4EA
:100BD0002050FFF735FE03E000210720FFF749FE14
:100BE00000BD2DE9F04305460024A1461148807957
:100BF000012824D10F488088A0F5D04104391ED0A7
:100C0000082D1BD2DFE805F00406080A0C0E1018A8
:100C1000062513E0072511E004250FE005250DE06A
:100C200001250BE0002509E0032507E07E00006CAC
:100C30008000006C3C300020022500BF00BFFE4851
:100C40008088A0F51341413911D0FB488088A0F578
:100C5000D04104390BD0F8488088A0F5A64110395E
:100C600005D0F5488088A0F5AA41103978D1082D23
:100C70001CD2DFE805F00406090C0F12151800BF9E
:100C800014E044F0800411E044F040040EE044F02D
:100C9000C0040BE044F0200408E044F0600405E0E8
:100CA00044F0A00402E044F0E00400BF00BFE248CA
:100CB0008088A0F5AA41103902D14FF4585901E0BB
:100CC0004FF03609DC488088A0F5A641103907D0DE
:100CD000D9488088A0F5AA41103901D044F0080411
:100CE000D5488088A0F5D041043901D144F00204F0
:100CF00021464846FFF7BDFD14F0200F03D1CE4832
:100D0000807901280FD1CC480088CB494988884296
:100D100018DAC948B0F800804088C74908800846FA
:100D2000A0F802800EE0C4480088C3494988884280
:100D300008DDC148B0F800804088BF4908800846F7
:100D4000A0F80280BC48807901280AD1BA4880887E
:100D5000A0F5D041043904D0B7484688078803E09D
:100D60007AE0B54806884788B3488088A0F5AA414C
:100D700010394AD1B0494889FFF762FD0020FFF7DA
:100D800068FDAD494989491C88B2FFF759FD00202B
:100D9000FFF75FFDA8494989891C88B2FFF750FD1C
:100DA000711EC1F30F20FFF754FDA3494989C91CE7
:100DB00088B2FFF745FD711EC8B2FFF74AFD9E4994
:100DC0008889FFF73DFD0020FFF743FD9A49898997
:100DD000491C88B2FFF734FD0020FFF73AFD964921
:100DE0008989891C88B2FFF72BFD791EC1F30F207A
:100DF000FFF72FFD90498989C91C88B2FFF720FDB4
:100E0000791EC8B2FFF725FD5AE08B494889FFF7E4
:100E100017FD0020FFF71DFD0020FFF71AFD711ED2
:100E2000C1F30F20FFF715FD711EC8B2FFF711FDCA
:100E300081498889FFF704FD0020FFF70AFD0020A3
:100E4000FFF707FD791EC1F30F20FFF702FD791EA2
:100E5000C8B2FFF7FEFC33E0082D1CD2DFE805F036
:100E600004070A0D0F12151844F0300413E044F083
:100E7000100410E044F020040DE000BF0BE044F04B
:100E8000380408E044F0280405E044F0180402E0C7
:100E900044F0080400BF00BF67488088A0F50941FE
:100EA000893905D14FF0110946F24000044303E0AF
:100EB0004FF0030944F4805421464846FFF7D9FC1B
:100EC000BDE8F08330B504460D4629462046FFF7BD
:100ED00003FDFFF7E5FC594800885949088030BDFB
:100EE00070B504460D46164653488088A0F5134158
:100EF000413905D050488088A0F5A641103914D159
:100F00004D494889FFF79CFC2012FFF7A2FCE0B294
:100F1000FFF79FFC48498889FFF792FC2812FFF7EA
:100F200098FCE8B2FFF795FC5DE043488088A0F5A7
:100F3000AA41103920D140494889FFF781FC20128D
:100F4000FFF787FC3C494989491C88B2FFF778FCC8
:100F5000E0B2FFF77EFC38498889FFF771FC281260
:100F6000FFF777FC34498989491C88B2FFF768FC90
:100F7000E8B2FFF76EFC36E02F488088A0F5D0413C
:100F800004391DD12C488079012804D12A480088D1
:100F9000401E001B84B228494889FFF751FC2012EB
:100FA000FFF757FCE0B2FFF754FC23498889FFF7AD
:100FB00047FC2812FFF74DFCE8B2FFF74AFC12E0AD
:100FC0001D488079012804D11B480088401E001B61
:100FD00084B2194948892146FFF74BFC1649888994
:100FE0002946FFF746FC14480089164908804FF04F
:100FF000D840A0F8806070BD10B50446002C5BD1CD
:101000000D498871F02008804FF4A0704880084690
:101010008088A0F5134141390BD007488088A0F59E
:10102000D041043905D004488088A0F5A641103984
:1010300023D12C20004907E03C300020180000207C
:101040008000006C7E00006C08812A2048812B20E3
:10105000888108468088A0F5D041043905D0FE4833
:101060008088A0F5A641103906D14FF4A070FA4946
:1010700008804FF4F070488079E0F7488088A0F548
:10108000AA41103910D14FF43050F34908814FF480
:10109000285048814FF42C5088814FF4F07008801C
:1010A0004FF44870488062E02220EB4908812020FC
:1010B0004881212088815AE00120E74988714FF456
:1010C000A0700880F020488008468088A0F5134171
:1010D000413905D0E0488088A0F5A641103907D1F4
:1010E0002C20DD4908812A2048812B2088812BE093
:1010F000D9488088A0F5D041043907D12C20D649A1
:1011000008812B2048812A2088811DE0D2488088D0
:10111000A0F5AA41103910D14FF43050CE490881C2
:101120004FF4285048814FF42C5088814FF4487078
:1011300008804FF4F070488006E02220C6490881FC
:101140002120488120208881C3488088A0F5D04193
:10115000043905D0C0488088A0F5A641103906D1D1
:101160004FF4F070BC4908804FF4A0704880002014
:10117000FFF737FD10BD2DE9FF4F04460D4616461B
:101180001F46A019401E86B2E819401E87B2B24819
:101190008088A0F5134141390BD0AF488088A0F575
:1011A000A641103905D0AC488088A0F5D04104395B
:1011B00020D1A9494889FFF743FB2012FFF749FBDB
:1011C000E0B2FFF746FB3012FFF743FBF0B2FFF748
:1011D00040FBA1498889FFF733FB2812FFF739FB51
:1011E000E8B2FFF736FB3812FFF733FBF8B2FFF730
:1011F00030FB7DE098488088A0F5AA41103944D1A1
:1012000095494889FFF71CFB2012FFF722FB924902
:101210004989491C88B2FFF713FBE0B2FFF719FBBD
:101220008D494989891C88B2FFF70AFB3012FFF704
:1012300010FB89494989C91C88B2FFF701FBF0B24C
:10124000FFF707FB84498889FFF7FAFA2812FFF7AE
:1012500000FB81498989491C88B2FFF7F1FAE8B29D
:10126000FFF7F7FA7C498989891C88B2FFF7E8FA09
:101270003812FFF7EEFA78498989C91C88B2FFF75E
:10128000DFFAF8B2FFF7E5FA32E073488079012817
:101290000ED1A846B94670480088801B401E1FFA30
:1012A00080FA6D480088001B401E1FFA80FB03E097
:1012B000A046B146AA46BB4650200390512002905A
:1012C000522001905320009041460398FFF7D1FA35
:1012D00049460298FFF7CDFA51460198FFF7C9FA3F
:1012E00059460098FFF7C5FA29462046FFF7F4FA59
:1012F000BDE8FF8F70B50446002657480588408832
:10130000454355488088A0F5D041043916D152484C
:101310008079012812D100204F4988712A20488104
:101320002B20888100210846FFF7D6FA01204A4980
:1013300088712B2048812A20888103E000210846FB
:10134000FFF7CAFAFFF7ACFA002603E0434804802F
:1013500006F10106AE42F9D370BD00B5A1B0002080
:10136000209001217A2004F01DFF0121084604F09D
:1013700051FF4FF400401E9001208DF87C000020AA
:101380008DF87E0002208DF87D0001208DF87F0011
:101390001EA9334804F07AF94CF233701E900220F3
:1013A0008DF87C0000208DF87E0003208DF87D00F4
:1013B00001208DF87F001EA92A4804F067F94FF636
:1013C00080701E9002208DF87C0000208DF87E0039
:1013D00003208DF87D0001208DF87F001EA9224892
:1013E00004F054F94FF480501E9002208DF87C00D8
:1013F00000208DF87E0003208DF87D0001208DF8FF
:101400007F001EA9194804F041F94FF480501E9046
:1014100002208DF87C0000208DF87E0003208DF8DE
:101420007D0001208DF87F001EA9114804F02EF9DF
:101430000C2200210B4804F0B4F90C2201210948C8
:1014400004F0AFF90C220421064804F0AAF90C229A
:10145000052104480EE000003C3000208000006CB4
:1014600000040240000C0240001002400014024040
:101470000018024004F095F90C220821FE4804F0FF
:1014800090F90C220921FC4804F08BF90C220A2166
:10149000F94804F086F90C220E21F74804F081F98E
:1014A0000C220F21F44804F07CF90C220721F348A8
:1014B00004F077F90C220821F04804F072F90C22AC
:1014C0000921EE4804F06DF90C220A21EB4804F0E2
:1014D00068F90C220B21E94804F063F90C2211464B
:1014E000E64804F05EF90C220D21E44804F059F9B5
:1014F0000C220E21E14804F054F90C220F21DF48A0
:1015000004F04FF90C221146DD4804F04AF90C2290
:101510001146DC4804F045F90F200890002009909E
:1015200018200A9000200B900C900D900E9008202F
:101530000190002002900820039000200490059064
:101540000690079006200F90002010901190102018
:1015500012900020139015901490169017904FF44D
:1015600080501890002019904FF480401A9000206D
:101570001B9008A81C9001A81D900FA804F066F904
:101580000121062004F0EAF9322003F09FFE012138
:101590000020FFF76EF9322003F098FE0020FFF7DD
:1015A00074F9B949888008468088FF280ADB084614
:1015B0008088A0F57F41FF3904D0B3488088B0F51A
:1015C000134F7CD1D320FFF73BF9FFF74BF9AE491E
:1015D0008880FFF747F9AC498880FFF743F9AA49AB
:1015E0008880084680884FF6FF7101EA0020A649EE
:1015F0008880FFF737F9A44989880843A249888081
:1016000008468088A0F51341413978D0BF20FFF704
:1016100017F9FFF727F99C498880FFF723F99A49C2
:101620008880FFF71FF998498880FFF71BF99649D2
:101630008880084680884FF6FF7101EA00209249B1
:101640008880FFF70FF99049898808438E49888080
:1016500008468088A0F5D041043950D0D420FFF747
:10166000EFF8FFF7FFF888498880FFF7FBF8864915
:101670008880FFF7F7F884498880084680884FF60D
:10168000FF7101EA002080498880FFF7EBF87E496E
:10169000898808437C49888008468088A0F5A6414F
:1016A00010392CD04FF45A40FFF7CAF8FFF7DAF898
:1016B000754988804FF45B40FFF7C2F800E01EE0F8
:1016C000FFF7D0F870498880084680884FF6FF7190
:1016D00001EA00206C4988804FF45C40FFF7B0F8C5
:1016E000FFF7C0F868498988084367498880084639
:1016F0008088B0F5004F02D145F2105088806248D2
:101700008088A0F5134141390BD05F488088A0F54F
:10171000A641103905D05C488088A0F5AA4110394F
:101720001DD15A48006820F00F004FF02041C1F849
:101730001C010846D0F81C0120F47060C1F81C019F
:101740000846D0F81C0140F00300C1F81C0108460F
:10175000D0F81C0140F40070C1F81C0128E04A4890
:101760008088A0F5D041043905D047488088A0F58D
:10177000454105391CD14548006820F00F004FF065
:101780002041C1F81C010846D0F81C0120F470600B
:10179000C1F81C010846D0F81C0140F00A00C1F84D
:1017A0001C010846D0F81C0140F44060C1F81C013F
:1017B0003548818836A006F0B9FC33488088A0F50A
:1017C000134141396CD1CF20FFF73AF80020FFF7E1
:1017D00040F82098401C2090C120FFF73AF83020B4
:1017E000FFF737F8ED20FFF72BF86420FFF731F80B
:1017F0000320FFF72EF81220FFF72BF88120FFF7C8
:1018000028F8E820FFF71CF88520FFF722F81020C1
:10181000FFF71FF87A20FFF71CF8CB20FFF710F82E
:101820003920FFF716F82C20FFF713F80020FFF7F8
:1018300010F83420FFF70DF80220FFF70AF8F72020
:10184000FEF7FEFF2020FFF704F8EA20FEF7F8FF7E
:101850000020FEF7FEFF0020FEF7FBFFC020FEF792
:10186000EFFF1B20FEF7F5FFC120FEF7E9FF012087
:10187000FEF7EFFFC52014E0000C0240001002400C
:1018800000140240001802403C3000201C0100A05F
:10189000204C43442049443A25780D0A00000000BA
:1018A000C0E0FEF7CDFF3020FEF7D3FF3020FEF77B
:1018B000D0FFC720FEF7C4FFB720FEF7CAFF3620CF
:1018C000FEF7BEFF4820FEF7C4FF3A20FEF7B8FF40
:1018D0005520FEF7BEFFB120FEF7B2FF0020FEF755
:1018E000B8FF1A20FEF7B5FFB620FEF7A9FF0A20C1
:1018F000FEF7AFFFA220FEF7ACFFF220FEF7A0FF3D
:101900000020FEF7A6FF2620FEF79AFF0120FEF733
:10191000A0FFE020FEF794FF0F20FEF79AFF2A2099
:10192000FEF797FF2820FEF794FF0820FEF791FFAF
:101930000E20FEF78EFF0820FEF78BFF5420FEF7E7
:1019400088FFA920FEF785FF4320FEF782FF0A20CB
:10195000FEF77FFF0F20FEF77CFF0020FEF779FFE8
:101960000020FEF776FF0020FEF773FF0020FEF751
:1019700070FFE120FEF764FF0020FEF76AFF1520EC
:10198000FEF767FF1720FEF764FF0720FEF761FFF1
:101990001120FEF75EFF0620FEF75BFF2B20FEF70F
:1019A00058FF5620FEF755FF3C20FEF752FF05205A
:1019B000FEF74FFF1020FEF74CFF0F20FEF749FF08
:1019C0003F20FEF746FF3F20FEF743FF0F20FEF7C4
:1019D00040FF2B20FEF734FF0020FEF73AFF0020E7
:1019E000FEF737FF0120FEF734FF3F20FEF731FFFF
:1019F0002A20FEF725FF0020FEF72BFF0020FEF730
:101A000028FF0020FEF725FFEF20FEF722FF112020
:101A1000FEF716FF782003F059FC2920FEF710FF8F
:101A200003F057B8FE488088A0F5D04104397CD136
:101A30001120FEF705FF142003F048FCD020FEF72C
:101A4000FFFE0720FEF705FF4220FEF702FF1D20E4
:101A5000FEF7FFFED120FEF7F3FE0020FEF7F9FEB1
:101A60001A20FEF7F6FE0920FEF7F3FED220FEF75D
:101A7000E7FE0120FEF7EDFE2220FEF7EAFEC02081
:101A8000FEF7DEFE1020FEF7E4FE3B20FEF7E1FE4F
:101A90000020FEF7DEFE0220FEF7DBFE1120FEF73F
:101AA000D8FEC520FEF7CCFE0320FEF7D2FEC820EC
:101AB000FEF7C6FE0020FEF7CCFE2520FEF7C9FE8D
:101AC0002120FEF7C6FE0520FEF7C3FE0020FEF72C
:101AD000C0FE0A20FEF7BDFE6520FEF7BAFE2520F7
:101AE000FEF7B7FE7720FEF7B4FE5020FEF7B1FEFA
:101AF0000F20FEF7AEFE0020FEF7ABFEF820FEF74B
:101B00009FFE0120FEF7A5FEFE20FEF799FE0020B5
:101B1000FEF79FFE0220FEF79CFE2020FEF790FEBF
:101B20003620FEF78DFE082000E02CE0FEF791FE47
:101B30003A20FEF785FE5520FEF78BFE2B20FEF7A0
:101B40007FFE0020FEF785FE0020FEF782FE0120CA
:101B5000FEF77FFE3F20FEF77CFE2A20FEF770FE98
:101B60000020FEF776FE0020FEF773FE0120FEF750
:101B700070FEDF20FEF76DFE782003F0A7FB292022
:101B8000FEF75EFE4CE7A6488088A0F5A641103916
:101B900040F07C87ED20FEF753FE0120FEF759FE52
:101BA000FE20FEF756FEEE20FEF74AFEDE20FEF790
:101BB00050FE2120FEF74DFEF120FEF741FE0120F0
:101BC000FEF747FEDF20FEF73BFE1020FEF741FE4A
:101BD000C420FEF735FE8F20FEF73BFEC620FEF741
:101BE0002FFE0020FEF735FEE220FEF732FEE22057
:101BF000FEF72FFEE220FEF72CFEBF20FEF720FEB0
:101C0000AA20FEF726FEB020FEF71AFE0D20FEF7F2
:101C100020FE0020FEF71DFE0D20FEF71AFE00201C
:101C2000FEF717FE1120FEF714FE0020FEF711FE4E
:101C30001920FEF70EFE0020FEF70BFE2120FEF716
:101C400008FE0020FEF705FE2D20FEF702FE002014
:101C5000FEF7FFFD3D20FEF7FCFD0020FEF7F9FD3D
:101C60005D20FEF7F6FD0020FEF7F3FD5D20FEF798
:101C7000F0FD0020FEF7EDFDB120FEF7E1FD802034
:101C8000FEF7E7FD0020FEF7E4FD8B20FEF7E1FD07
:101C90000020FEF7DEFD9620FEF7DBFD0020FEF7BC
:101CA000D8FDB220FEF7CCFD0020FEF7D2FD0020CB
:101CB000FEF7CFFD0220FEF7CCFD0020FEF7C9FDA8
:101CC0000320FEF7C6FD0020FEF7C3FDB320FEF79C
:101CD000B7FD0020FEF7BDFD0020FEF7BAFD002095
:101CE000FEF7B7FD0020FEF7B4FD0020FEF7B1FDC2
:101CF0000020FEF7AEFD0020FEF7ABFD0020FEF752
:101D0000A8FD0020FEF7A5FD0020FEF7A2FD0020A3
:101D1000FEF79FFD0020FEF79CFD0020FEF799FDD9
:101D20000020FEF796FD0020FEF793FD0020FEF751
:101D300090FD0020FEF78DFD0020FEF78AFD0020BB
:101D4000FEF787FD0020FEF784FD0020FEF781FDF1
:101D50000020FEF77EFD0020FEF77BFD0020FEF751
:101D600078FDB420FEF76CFD8B20FEF772FD00209D
:101D7000FEF76FFD9620FEF76CFD0020FEF769FD73
:101D8000A120FEF766FD0020FEF763FDB520FEF7FB
:101D900057FD0220FEF75DFD0020FEF75AFD0320EF
:101DA000FEF757FD0020FEF754FD0420FEF751FD1D
:101DB0000020FEF74EFDB620FEF742FD0020FEF7A4
:101DC00048FD0020FEF745FDB720FEF739FD002055
:101DD000FEF73FFD0020FEF73CFD3F20FEF739FDFA
:101DE0000020FEF736FD5E20FEF733FD0020FEF7F3
:101DF00030FD6420FEF72DFD0020FEF72AFD8C202B
:101E0000FEF727FD0020FEF724FDAC20FEF721FDA4
:101E10000020FEF71EFDDC20FEF71BFD002001E088
:101E20003C300020FEF715FD7020FEF712FD00206B
:101E3000FEF70FFD9020FEF70CFD0020FEF709FDD8
:101E4000EB20FEF706FD0020FEF703FDDC20FEF789
:101E500000FD0020FEF7FDFCB820FEF7F1FC00209D
:101E6000FEF7F7FC0020FEF7F4FC0020FEF7F1FC83
:101E70000020FEF7EEFC0020FEF7EBFC0020FEF752
:101E8000E8FC0020FEF7E5FC0020FEF7E2FCBA20AB
:101E9000FEF7D6FC2420FEF7DCFC0020FEF7D9FC80
:101EA0000020FEF7D6FC0020FEF7D3FCC120FEF791
:101EB000C7FC2020FEF7CDFC0020FEF7CAFC542012
:101EC000FEF7C7FC0020FEF7C4FCFF20FEF7C1FCB4
:101ED0000020FEF7BEFCC220FEF7B2FC0A20FEF78F
:101EE000B8FC0020FEF7B5FC0420FEF7B2FC002091
:101EF000FEF7AFFCC320FEF7A3FC3C20FEF7A9FCD5
:101F00000020FEF7A6FC3A20FEF7A3FC0020FEF717
:101F1000A0FC3920FEF79DFC0020FEF79AFC37203C
:101F2000FEF797FC0020FEF794FC3C20FEF791FCA6
:101F30000020FEF78EFC3620FEF78BFC0020FEF71B
:101F400088FC3220FEF785FC0020FEF782FC2F2063
:101F5000FEF77FFC0020FEF77CFC2C20FEF779FCCE
:101F60000020FEF776FC2920FEF773FC0020FEF728
:101F700070FC2620FEF76DFC0020FEF76AFC242092
:101F8000FEF767FC0020FEF764FC2420FEF761FCEE
:101F90000020FEF75EFC2320FEF75BFC0020FEF72E
:101FA00058FC3C20FEF755FC0020FEF752FC362082
:101FB000FEF74FFC0020FEF74CFC3220FEF749FCF8
:101FC0000020FEF746FC2F20FEF743FC0020FEF722
:101FD00040FC2C20FEF73DFC0020FEF73AFC2920B7
:101FE000FEF737FC0020FEF734FC2620FEF731FC1C
:101FF0000020FEF72EFC2420FEF72BFC0020FEF72D
:1020000028FC2420FEF725FC0020FEF722FC2320DC
:10201000FEF71FFC0020FEF71CFCC420FEF710FC9E
:102020006220FEF716FC0020FEF713FC0520FEF7E9
:1020300010FC0020FEF70DFC8420FEF70AFC0020B7
:10204000FEF707FCF020FEF704FC0020FEF701FC81
:102050001820FEF7FEFB0020FEF7FBFBA420FEF796
:10206000F8FB0020FEF7F5FB1820FEF7F2FB00203E
:10207000FEF7EFFB5020FEF7ECFB0020FEF7E9FB3C
:102080000C20FEF7E6FB0020FEF7E3FB1720FEF72F
:10209000E0FB0020FEF7DDFB9520FEF7DAFB0020D9
:1020A000FEF7D7FBF320FEF7D4FB0020FEF7D1FBB1
:1020B000E620FEF7CEFB0020FEF7CBFBC520FEF7A7
:1020C000BFFB3220FEF7C5FB0020FEF7C2FB442019
:1020D000FEF7BFFB0020FEF7BCFB6520FEF7B9FB57
:1020E0000020FEF7B6FB7620FEF7B3FB0020FEF7DC
:1020F000B0FB8820FEF7ADFB0020FEF7AAFBC62050
:10210000FEF79EFB2020FEF7A4FB0020FEF7A1FBBC
:102110001720FEF79EFB0020FEF79BFB0120FEF739
:1021200098FB0020FEF795FBC720FEF789FB0020F7
:10213000FEF78FFB0020FEF78CFB0020FEF789FBEB
:102140000020FEF786FBC820FEF77AFB0020FEF792
:1021500080FB0020FEF77DFB0020FEF77AFB0020CD
:10216000FEF777FBC920FEF76BFB0020FEF771FB43
:102170000020FEF76EFB0020FEF76BFB0020FEF751
:1021800068FB0020FEF765FB0020FEF762FB0020E5
:10219000FEF75FFB0020FEF75CFB0020FEF759FB1B
:1021A0000020FEF756FB0020FEF753FB0020FEF751
:1021B00050FB0020FEF74DFB0020FEF74AFB0020FD
:1021C000FEF747FB0020FEF744FBE020FEF738FB5C
:1021D0001620FEF73EFB0020FEF73BFB1C20FEF71F
:1021E00038FB0020FEF735FB2120FEF732FB0020F4
:1021F000FEF72FFB3620FEF72CFB0020FEF729FB15
:102200004620FEF726FB0020FEF723FB5220FEF7B8
:1022100020FB0020FEF71DFB6420FEF71AFB0020C8
:10222000FEF717FB7A20FEF714FB0020FEF711FBE8
:102230008B20FEF70EFB0020FEF70BFB9920FEF72C
:1022400008FB0020FEF705FBA820FEF702FB00209C
:10225000FEF7FFFAB920FEF7FCFA0020FEF7F9FAC4
:10226000C420FEF7F6FA0020FEF7F3FACA20FEF7C4
:10227000F0FA0020FEF7EDFAD220FEF7EAFA00208D
:10228000FEF7E7FAD920FEF7E4FA0020FEF7E1FABC
:10229000E020FEF7DEFA0020FEF7DBFAF320FEF77F
:1022A000D8FA0020FEF7D5FAE120FEF7C9FA162089
:1022B000FEF7CFFA0020FEF7CCFA1C20FEF7C9FA91
:1022C0000020FEF7C6FA2220FEF7C3FA0020FEF730
:1022D000C0FA3620FEF7BDFA0020FEF7BAFA452014
:1022E000FEF7B7FA0020FEF7B4FA5220FEF7B1FA73
:1022F0000020FEF7AEFA6420FEF7ABFA0020FEF7EE
:10230000A8FA7A20FEF7A5FA0020FEF7A2FA8B20A1
:10231000FEF79FFA0020FEF79CFA9920FEF799FA43
:102320000020FEF796FAA820FEF793FA0020FEF7A9
:1023300090FAB920FEF78DFA0020FEF78AFAC42041
:10234000FEF787FA0020FEF784FACA20FEF781FA2A
:102350000020FEF77EFAD220FEF77BFA0020FEF77F
:1023600078FAD820FEF775FA0020FEF772FAE0201E
:10237000FEF76FFA0020FEF76CFAF320FEF769FA19
:102380000020FEF766FAE220FEF75AFA0520FEF773
:1023900060FA0020FEF75DFA0B20FEF75AFA0020E3
:1023A000FEF757FA1B20FEF754FA0020FEF751FA09
:1023B0003420FEF74EFA0020FEF74BFA4420FEF7D9
:1023C00048FA0020FEF745FA4F20FEF742FA0020B7
:1023D000FEF73FFA6120FEF73CFA0020FEF739FADB
:1023E0007920FEF736FA0020FEF733FA8820FEF750
:1023F00030FA0020FEF72DFA9720FEF72AFA002087
:10240000FEF727FAA620FEF724FA0020FEF721FAAD
:10241000B720FEF71EFA0020FEF71BFAC220FEF7D7
:1024200018FA0020FEF715FAC720FEF712FA00206E
:10243000FEF70FFAD120FEF70CFA0020FEF709FA9A
:10244000D620FEF706FA0020FEF703FADD20FEF79D
:1024500000FA0020FEF7FDF9F320FEF7FAF900205C
:10246000FEF7F7F9E320FEF7EBF90520FEF7F1F9A7
:102470000020FEF7EEF90A20FEF7EBF90020FEF748
:10248000E8F91C20FEF7E5F90020FEF7E2F9332019
:10249000FEF7DFF90020FEF7DCF94420FEF7D9F95A
:1024A0000020FEF7D6F95020FEF7D3F90020FEF702
:1024B000D0F96220FEF7CDF90020FEF7CAF97820A6
:1024C000FEF7C7F90020FEF7C4F98820FEF7C1F92E
:1024D0000020FEF7BEF99720FEF7BBF90020FEF7BB
:1024E000B8F9A620FEF7B5F90020FEF7B2F9B7203B
:1024F000FEF7AFF90020FEF7ACF9C220FEF7A9F90C
:102500000020FEF7A6F9C720FEF7A3F90020FEF78A
:10251000A0F9D120FEF79DF90020FEF79AF9D52009
:10252000FEF797F90020FEF794F9DD20FEF791F908
:102530000020FEF78EF9F320FEF78BF90020FEF75E
:1025400088F9E420FEF77CF90120FEF782F90020EB
:10255000FEF77FF90120FEF77CF90020FEF779F9FC
:102560000220FEF776F90020FEF773F92A20FEF725
:1025700070F90020FEF76DF93C20FEF76AF90020A3
:10258000FEF767F94B20FEF764F90020FEF761F9CA
:102590005D20FEF75EF90020FEF75BF97420FEF780
:1025A00058F90020FEF755F98420FEF752F9002073
:1025B000FEF74FF99320FEF74CF90020FEF749F99A
:1025C000A220FEF746F90020FEF743F9B320FEF7FC
:1025D00040F90020FEF73DF9BE20FEF73AF9002051
:1025E000FEF737F9C420FEF734F90020FEF731F981
:1025F000CD20FEF72EF90020FEF72BF9D320FEF7B1
:1026000028F90020FEF725F9DD20FEF722F9002049
:10261000FEF71FF9F320FEF71CF90020FEF719F969
:10262000E520FEF70DF90020FEF713F90020FEF774
:1026300010F90020FEF70DF90020FEF70AF902203C
:10264000FEF707F90020FEF704F92920FEF701F94B
:102650000020FEF7FEF83C20FEF7FBF80020FEF716
:10266000F8F84B20FEF7F5F80020FEF7F2F85D20B1
:10267000FEF7EFF80020FEF7ECF87420FEF7E9F81B
:102680000020FEF7E6F88420FEF7E3F80020FEF7CE
:10269000E0F89320FEF7DDF80020FEF7DAF8A2203C
:1026A000FEF7D7F80020FEF7D4F8B320FEF7D1F8F4
:1026B0000020FEF7CEF8BE20FEF7CBF80020FEF794
:1026C000C8F8C420FEF7C5F80020FEF7C2F8CD20F8
:1026D000FEF7BFF80020FEF7BCF8D320FEF7B9F8EC
:1026E0000020FEF7B6F8DC20FEF7B3F80020FEF776
:1026F000B0F8F320FEF7ADF80020FEF7AAF8E620C8
:10270000FEF79EF81120FEF7A4F80020FEF7A1F8CE
:102710003420FEF79EF80020FEF79BF85620FEF7C7
:1027200098F80020FEF795F87620FEF792F8002042
:10273000FEF78FF87720FEF78CF80020FEF789F877
:102740006620FEF786F80020FEF783F88820FEF763
:1027500080F80020FEF77DF89920FEF77AF8002037
:10276000FEF777F8BB20FEF774F80020FEF771F84B
:102770009920FEF76EF80020FEF76BF86620FEF752
:1027800068F80020FEF765F85520FEF762F8002093
:10279000FEF75FF85520FEF75CF80020FEF759F8C9
:1027A0004520FEF756F80020FEF753F84320FEF7C9
:1027B00050F80020FEF74DF84420FEF74AF80020BC
:1027C000FEF747F8E720FEF73BF83220FEF741F826
:1027D0000020FEF73EF85520FEF73BF80020FEF7FC
:1027E00038F87620FEF735F80020FEF732F866203C
:1027F000FEF72FF80020FEF72CF86720FEF729F8E7
:102800000020FEF726F86720FEF723F80020FEF7E9
:1028100020F88720FEF71DF80020FEF71AF899200F
:10282000FEF717F80020FEF714F8BB20FEF711F8AA
:102830000020FEF70EF89920FEF70BF80020FEF7B7
:1028400008F87720FEF705F80020FEF702F844208C
:10285000FDF7FFFF0020FDF7FCFF5620FDF7F9FF15
:102860000020FDF7F6FF2320FDF7F3FF0020FDF722
:10287000F0FF3320FDF7EDFF0020FDF7EAFF4520D4
:10288000FDF7E7FF0020FDF7E4FFE820FDF7D8FFA4
:102890000020FDF7DEFF0020FDF7DBFF9920FDF7AC
:1028A000D8FF0020FDF7D5FF8720FDF7D2FF0020DD
:1028B000FDF7CFFF8820FDF7CCFF0020FDF7C9FF13
:1028C0007720FDF7C6FF0020FDF7C3FF6620FDF768
:1028D000C0FF0020FDF7BDFF8820FDF7BAFF0020F4
:1028E000FDF7B7FFAA20FDF7B4FF0020FDF7B1FF09
:1028F000BB20FDF7AEFF0020FDF7ABFF9920FDF7F1
:10290000A8FF0020FDF7A5FF6620FDF7A2FF00202D
:10291000FDF79FFF5520FDF79CFF0020FDF799FF75
:102920005520FDF796FF0020FDF793FF4420FDF7AB
:1029300090FF0020FDF78DFF4420FDF78AFF002067
:10294000FDF787FF5520FDF784FF0020FDF781FF8D
:10295000E920FDF775FFAA20FDF77BFF0020FDF7BA
:1029600078FF0020FDF775FF0020FDF772FF0020C3
:10297000FDF766FFAA20FDF76CFFCF20FDF760FF93
:102980000020FDF766FF0020FDF763FF0020FDF744
:1029900060FF0020FDF75DFF0020FDF75AFF0020DB
:1029A000FDF757FF0020FDF754FF0020FDF751FF12
:1029B0000020FDF74EFF0020FDF74BFF0020FDF744
:1029C00048FF0020FDF745FF0020FDF742FF0020F3
:1029D000FDF73FFF0020FDF73CFF0020FDF739FF2A
:1029E0000020FDF736FFF020FDF72AFF0020FDF75D
:1029F00030FF5020FDF72DFF0020FDF72AFF0020BB
:102A0000FDF727FF0020FDF724FFF320FDF718FF57
:102A10000020FDF71EFFF920FDF712FF0620FDF74D
:102A200018FF1020FDF715FF2920FDF712FF0020E9
:102A3000FDF70FFF3A20FDF703FF5520FDF709FFD3
:102A40001120FDF7FDFE642002F040FC2920FDF777
:102A5000F7FE3520FDF7F4FE0020FDF7FAFE5120C9
:102A6000FDF7EEFEFF20FDF7F4FE5320FDF7E8FE34
:102A70002C20FDF7EEFE5520FDF7E2FE8220FDF74B
:102A8000E8FE2C20FDF7DCFE02F023B8FE4880882B
:102A9000A0F5AA4110397DD155214FF47040FDF7C2
:102AA000E8FEAA214FF20100FDF7E3FE52214FF2AA
:102AB0000200FDF7DEFE08214FF20300FDF7D9FE0C
:102AC00001214FF20400FDF7D4FE0D214FF43040F8
:102AD000FDF7CFFE0D214BF20100FDF7CAFE0D21DF
:102AE0004BF20200FDF7C5FE34214FF43640FDF7EE
:102AF000C0FE34214BF20160FDF7BBFE34214BF2E6
:102B00000260FDF7B6FE0D214FF43140FDF7B1FE36
:102B10000D214BF20110FDF7ACFE0D214BF202101E
:102B2000FDF7A7FE34214FF43740FDF7A2FE342114
:102B30004BF20170FDF79DFE34214BF20270FDF760
:102B400098FE00214FF43240FDF793FE00214BF236
:102B50000120FDF78EFE00214BF20220FDF789FED9
:102B600024214FF43840FDF784FE24214BF6010068
:102B7000FDF77FFE24214BF60200FDF77AFE0121CE
:102B80004FF43F40FDF775FE0F214FF43340FDF742
:102B900070FE00E0FDE30F214BF20130FDF769FE0E
:102BA0000F214BF20230FDF764FE34214FF439401F
:102BB000FDF75FFE34214BF60110FDF75AFE34217C
:102BC0004BF60210FDF755FE08214FF43540FDF796
:102BD00050FE08214BF20150FDF74BFE08214BF24D
:102BE0000250FDF746FE03214FF44240FDF741FE3F
:102BF00024214FF43A40FDF73CFE24214BF60120FE
:102C0000FDF737FE24214BF60220FDF732FE0021AE
:102C10004FF43C40FDF72DFE78214BF60140FDF7C7
:102C200028FE00214BF60240FDF723FE00214FF461
:102C30003D40FDF71EFE78214BF60150FDF719FED1
:102C400000214BF60250FDF714FE00214FF43E40E8
:102C5000FDF70FFE64214BF60160FDF70AFE00212F
:102C60004FF45140FDF705FE33214DF20110FDF701
:102C700000FE00214DF20210FDF7FBFD34214DF264
:102C80000310FDF7F6FD00214DF20410FDF7F1FDF4
:102C90003A214DF20510FDF7ECFD00214DF2061032
:102CA000FDF7E7FD4A214DF20710FDF7E2FD002197
:102CB0004DF20810FDF7DDFD5C214DF20910FDF726
:102CC000D8FD00214DF20A10FDF7D3FD81214DF210
:102CD0000B10FDF7CEFD00214DF20C10FDF7C9FDE4
:102CE000A6214DF20D10FDF7C4FD00214DF20E108E
:102CF000FDF7BFFDE5214DF20F10FDF7BAFD0121F3
:102D00004DF21010FDF7B5FD13214DF21110FDF736
:102D1000B0FD01214DF21210FDF7ABFD54214DF233
:102D20001310FDF7A6FD01214DF21410FDF7A1FDD2
:102D300082214DF21510FDF79CFD01214DF2161078
:102D4000FDF797FDCA214DF21710FDF792FD022104
:102D50004DF21810FDF78DFD00214DF21910FDF711
:102D600088FD02214DF21A10FDF783FD01214DF27D
:102D70001B10FDF77EFD02214DF21C10FDF779FDC1
:102D800034214DF21D10FDF774FD02214DF21E108D
:102D9000FDF76FFD67214DF21F10FDF76AFD02215F
:102DA0004DF22010FDF765FD84214DF22110FDF755
:102DB00060FD02214DF22210FDF75BFDA4214DF2D2
:102DC0002310FDF756FD02214DF22410FDF751FDB1
:102DD000B7214DF22510FDF74CFD02214DF22610D2
:102DE000FDF747FDCF214DF22710FDF742FD0221EF
:102DF0004DF22810FDF73DFDDE214DF22910FDF7C3
:102E000038FD02214DF22A10FDF733FDF2214DF27B
:102E10002B10FDF72EFD02214DF22C10FDF729FDA0
:102E2000FE214DF22D10FDF724FD03214DF22E1051
:102E3000FDF71FFD10214DF22F10FDF71AFD0321A4
:102E40004DF23010FDF715FD33214DF23110FDF735
:102E500010FD03214DF23210FDF70BFD6D214DF2F7
:102E60003310FDF706FD00214FF45240FDF701FD40
:102E700033214DF20120FDF7FCFC00214DF2022030
:102E8000FDF7F7FC342101E03C3000204DF2032037
:102E9000FDF7EFFC00214DF20420FDF7EAFC3A219A
:102EA0004DF20520FDF7E5FC00214DF20620FDF76F
:102EB000E0FC4A214DF20720FDF7DBFC00214DF23A
:102EC0000820FDF7D6FC5C214DF20920FDF7D1FC6E
:102ED00000214DF20A20FDF7CCFC81214DF20B20A0
:102EE000FDF7C7FC00214DF20C20FDF7C2FCA62126
:102EF0004DF20D20FDF7BDFC00214DF20E20FDF737
:102F0000B8FCE5214DF20F20FDF7B3FC01214DF295
:102F10001020FDF7AEFC13214DF21120FDF7A9FCA6
:102F200001214DF21220FDF7A4FC54214DF2132093
:102F3000FDF79FFC01214DF21420FDF79AFC822140
:102F40004DF21520FDF795FC01214DF21620FDF7FD
:102F500090FCCA214DF21720FDF78BFC02214DF2A7
:102F60001820FDF786FC00214DF21920FDF781FCA9
:102F700002214DF21A20FDF77CFC01214DF21B20AD
:102F8000FDF777FC02214DF21C20FDF772FC342185
:102F90004DF21D20FDF76DFC02214DF21E20FDF7C4
:102FA00068FC67214DF21F20FDF763FC02214DF202
:102FB0002020FDF75EFC84214DF22120FDF759FC15
:102FC00002214DF22220FDF754FCA4214DF22320D2
:102FD000FDF74FFC02214DF22420FDF74AFCB721FA
:102FE0004DF22520FDF745FC02214DF22620FDF78C
:102FF00040FCCF214DF22720FDF73BFC02214DF292
:103000002820FDF736FCDE214DF22920FDF731FCAA
:1030100002214DF22A20FDF72CFCF2214DF22B204B
:10302000FDF727FC02214DF22C20FDF722FCFE21AA
:103030004DF22D20FDF71DFC03214DF22E20FDF752
:1030400018FC10214DF22F20FDF713FC03214DF247
:103050003020FDF70EFC33214DF23120FDF709FC45
:1030600003214DF23220FDF704FC6D214DF2332097
:10307000FDF7FFFB00214FF45340FDF7FAFB33212E
:103080004DF20130FDF7F5FB00214DF20230FDF766
:10309000F0FB34214DF20330FDF7EBFB00214DF244
:1030A0000430FDF7E6FB3A214DF20530FDF7E1FB78
:1030B00000214DF20630FDF7DCFB4A214DF20730CE
:1030C000FDF7D7FB00214DF20830FDF7D2FB5C2164
:1030D0004DF20930FDF7CDFB00214DF20A30FDF72E
:1030E000C8FB81214DF20B30FDF7C3FB00214DF2EF
:1030F0000C30FDF7BEFBA6214DF20D30FDF7B9FBFC
:1031000000214DF20E30FDF7B4FBE5214DF20F30FA
:10311000FDF7AFFB01214DF21030FDF7AAFB1321A3
:103120004DF21130FDF7A5FB01214DF21230FDF7F4
:10313000A0FB54214DF21330FDF79BFB01214DF212
:103140001430FDF796FB82214DF21530FDF791FB0F
:1031500001214DF21630FDF78CFBCA214DF21730DC
:10316000FDF787FB02214DF21830FDF782FB0021AD
:103170004DF21930FDF77DFB02214DF21A30FDF7BB
:1031800078FB01214DF21B30FDF773FB02214DF25C
:103190001C30FDF76EFB34214DF21D30FDF769FB4D
:1031A00002214DF21E30FDF764FB67214DF21F3006
:1031B000FDF75FFB02214DF22030FDF75AFB842121
:1031C0004DF22130FDF755FB02214DF22230FDF783
:1031D00050FBA4214DF22330FDF74BFB02214DF2B1
:1031E0002430FDF746FBB7214DF22530FDF741FBBA
:1031F00002214DF22630FDF73CFBCF214DF2273066
:10320000FDF737FB02214DF22830FDF732FBDE21BE
:103210004DF22930FDF72DFB02214DF22A30FDF74A
:1032200028FBF2214DF22B30FDF723FB02214DF25A
:103230002C30FDF71EFBFE214DF22D30FDF719FB62
:1032400003214DF22E30FDF714FB10214DF22F30EB
:10325000FDF70FFB03214DF23030FDF70AFB332160
:103260004DF23130FDF705FB03214DF23230FDF711
:1032700000FB6D214DF23330FDF7FBFA00214FF4D6
:103280005440FDF7F6FA33214DF20140FDF7F1FA13
:1032900000214DF20240FDF7ECFA34214DF20340DB
:1032A000FDF7E7FA00214DF20440FDF7E2FA3A217A
:1032B0004DF20540FDF7DDFA00214DF20640FDF725
:1032C000D8FA4A214DF20740FDF7D3FA00214DF21A
:1032D0000840FDF7CEFA5C214DF20940FDF7C9FA2E
:1032E00000214DF20A40FDF7C4FA81214DF20B4056
:1032F000FDF7BFFA00214DF20C40FDF7BAFAA62106
:103300004DF20D40FDF7B5FA00214DF20E40FDF7EC
:10331000B0FAE5214DF20F40FDF7ABFA01214DF275
:103320001040FDF7A6FA13214DF21140FDF7A1FA66
:1033300001214DF21240FDF79CFA54214DF2134049
:10334000FDF797FA01214DF21440FDF792FA822120
:103350004DF21540FDF78DFA01214DF21640FDF7B3
:1033600088FACA214DF21740FDF783FA02214DF287
:103370001840FDF77EFA00214DF21940FDF779FA69
:1033800002214DF21A40FDF774FA01214DF21B4063
:1033900000E006E3FDF76DFA02214DF21C40FDF757
:1033A00068FA34214DF21D40FDF763FA02214DF217
:1033B0001E40FDF75EFA67214DF21F40FDF759FAF6
:1033C00002214DF22040FDF754FA84214DF22140B4
:1033D000FDF74FFA02214DF22240FDF74AFAA421EF
:1033E0004DF22340FDF745FA02214DF22440FDF74E
:1033F00040FAB7214DF22540FDF73BFA02214DF28C
:103400002640FDF736FACF214DF22740FDF731FA7D
:1034100002214DF22840FDF72CFADE214DF2294021
:10342000FDF727FA02214DF22A40FDF722FAF22198
:103430004DF22B40FDF71DFA02214DF22C40FDF715
:1034400018FAFE214DF22D40FDF713FA03214DF23B
:103450002E40FDF70EFA10214DF22F40FDF709FA2C
:1034600003214DF23040FDF704FA33214DF2314093
:10347000FDF7FFF903214DF23240FDF7FAF96D2116
:103480004DF23340FDF7F5F900214FF45540FDF7BB
:10349000F0F933214DF20150FDF7EBF900214DF227
:1034A0000250FDF7E6F934214DF20350FDF7E1F942
:1034B00000214DF20450FDF7DCF93A214DF20550A0
:1034C000FDF7D7F900214DF20650FDF7D2F94A2158
:1034D0004DF20750FDF7CDF900214DF20850FDF7F0
:1034E000C8F95C214DF20950FDF7C3F900214DF2F6
:1034F0000A50FDF7BEF981214DF20B50FDF7B9F9E5
:1035000000214DF20C50FDF7B4F9A6214DF20D50FB
:10351000FDF7AFF900214DF20E50FDF7AAF9E521B4
:103520004DF20F50FDF7A5F901214DF21050FDF7B6
:10353000A0F913214DF21150FDF79BF901214DF235
:103540001250FDF796F954214DF21350FDF791F901
:1035500001214DF21450FDF78CF982214DF21550E6
:10356000FDF787F901214DF21650FDF782F9CA21C6
:103570004DF21750FDF77DF902214DF21850FDF77D
:1035800078F900214DF21950FDF773F902214DF23F
:103590001A50FDF76EF901214DF21B50FDF769F944
:1035A00002214DF21C50FDF764F934214DF21D50FB
:1035B000FDF75FF902214DF21E50FDF75AF9672120
:1035C0004DF21F50FDF755F902214DF22050FDF745
:1035D00050F984214DF22150FDF74BF902214DF2B3
:1035E0002250FDF746F9A4214DF22350FDF741F991
:1035F00002214DF22450FDF73CF9B7214DF2255040
:10360000FDF737F902214DF22650FDF732F9CF21AF
:103610004DF22750FDF72DF902214DF22850FDF70C
:1036200028F9DE214DF22950FDF723F902214DF250
:103630002A50FDF71EF9F2214DF22B50FDF719F932
:1036400002214DF22C50FDF714F9FE214DF22D50C0
:10365000FDF70FF903214DF22E50FDF70AF9102165
:103660004DF22F50FDF705F903214DF23050FDF7D3
:1036700000F933214DF23150FDF7FBF803214DF2F3
:103680003250FDF7F6F86D214DF23350FDF7F1F8A9
:1036900000214FF45640FDF7ECF833214DF2016064
:1036A000FDF7E7F800214DF20260FDF7E2F8342162
:1036B0004DF20360FDF7DDF800214DF20460FDF7E7
:1036C000D8F83A214DF20560FDF7D3F800214DF20C
:1036D0000660FDF7CEF84A214DF20760FDF7C9F804
:1036E00000214DF20860FDF7C4F85C214DF209603D
:1036F000FDF7BFF800214DF20A60FDF7BAF881210D
:103700004DF20B60FDF7B5F800214DF20C60FDF7AE
:10371000B0F8A6214DF20D60FDF7ABF800214DF297
:103720000E60FDF7A6F8E5214DF20F60FDF7A1F858
:1037300001214DF21060FDF79CF813214DF211604C
:10374000FDF797F801214DF21260FDF792F8542130
:103750004DF21360FDF78DF801214DF21460FDF775
:1037600088F882214DF21560FDF783F801214DF2B2
:103770001660FDF77EF8CA214DF21760FDF779F863
:1037800002214DF21860FDF774F800214DF2196026
:10379000FDF76FF802214DF21A60FDF76AF801217A
:1037A0004DF21B60FDF765F802214DF21C60FDF73C
:1037B00060F834214DF21D60FDF75BF802214DF2F7
:1037C0001E60FDF756F867214DF21F60FDF751F8B6
:1037D00002214DF22060FDF74CF884214DF221606A
:1037E000FDF747F802214DF22260FDF742F8A421CF
:1037F0004DF22360FDF73DF802214DF22460FDF704
:1038000038F8B7214DF22560FDF733F802214DF26B
:103810002660FDF72EF8CF214DF22760FDF729F83D
:1038200002214DF22860FDF724F8DE214DF22960D7
:10383000FDF71FF802214DF22A60FDF71AF8F22178
:103840004DF22B60FDF715F802214DF22C60FDF7CB
:1038500010F8FE214DF22D60FDF70BF803214DF21B
:103860002E60FDF706F810214DF22F60FDF701F8EC
:1038700003214DF23060FCF7FCFF33214DF2316043
:10388000FCF7F7FF03214DF23260FCF7F2FF6D21E8
:103890004DF23360FCF7EDFF55214FF47040FCF71B
:1038A000E8FFAA214FF20100FCF7E3FF52214FF29B
:1038B0000200FCF7DEFF08214FF20300FCF7D9FFFE
:1038C00000214FF20400FCF7D4FFCC214FF431402B
:1038D000FCF7CFFF00214BF20110FCF7CAFF0521D6
:1038E0004FF43640FCF7C5FF70214FF43740FCF72A
:1038F000C0FF70214BF20170FCF7BBFF01214FF4B8
:103900003840FCF7B6FF03214BF60100FCF7B1FF8E
:1039100003214BF60200FCF7ACFF03214BF603003A
:10392000FCF7A7FF02214FF43C40FCF7A2FF002167
:103930004BF60140FCF79DFF00214BF60240FCF7DF
:1039400098FFD0214FF44940FCF793FF02214CF639
:103950000110FCF78EFF50214CF60210FCF789FF96
:1039600050214CF60310FCF784FF50214CF6041054
:10397000FCF77FFF00214FF45450FCF77AFF5521EC
:103980004FF46850FCF775FF4FF48850FCF758FF70
:10399000782001F055FC4FF42450FCF751FF01F062
:1039A00098B8FE488088A0F5134125397ED147F6A6
:1039B000F001E520FCF75DFF4FF480710120FCF77A
:1039C00058FF4FF4E0610220FCF753FF41F2300151
:1039D0000320FCF74EFF00210420FCF74AFF40F2D1
:1039E00002210820FCF745FF00210920FCF741FFD8
:1039F00000210A20FCF73DFF00210C20FCF739FFD5
:103A000000210D20FCF735FF00210F20FCF731FFCE
:103A100000211020FCF72DFF07211120FCF729FFC2
:103A200000211220FCF725FF00211320FCF721FFC5
:103A300000210720FCF71DFF41F290611020FCF7E8
:103A400018FF40F227211120FCF713FF9D211220BF
:103A5000FCF70FFF4FF4C8511320FCF70AFF252194
:103A60002920FCF706FF0D212B20FCF702FF072180
:103A70003020FCF7FEFE40F203313120FCF7F9FE66
:103A800003213220FCF7F5FE40F206213520FCF739
:103A9000F0FE08213620FCF7ECFE40F2064137200C
:103AA000FCF7E7FE4FF44171382000E057E0FCF7E7
:103AB000E0FE07213920FCF7DCFE40F202613C20E9
:103AC000FCF7D7FE08213D20FCF7D3FE0021502053
:103AD000FCF7CFFEEF215120FCF7CBFE0021522056
:103AE000FCF7C7FE40F23F115320FCF7C2FE4FF433
:103AF00027416020FCF7BDFE01216120FCF7B9FEE3
:103B000000216A20FCF7B5FE00218020FCF7B1FE01
:103B100000218120FCF7ADFE00218220FCF7A9FEE8
:103B200000218320FCF7A5FE00218420FCF7A1FEE4
:103B300000218520FCF79DFE10219020FCF799FEC6
:103B40004FF4C0619220FCF794FE40F2331107203D
:103B5000FCF78FFE22210020FCF78BFE1FE78F4829
:103B60008088A0F5134128397ED141F28F01EC20E5
:103B7000FCF77FFE41F23421EF20FCF77AFE4FF490
:103B800080710120FCF775FE4FF4E0610220FCF724
:103B900070FE41F230010320FCF76BFE002104208F
:103BA000FCF767FE40F202210820FCF762FE0021CC
:103BB0000920FCF75EFE00210A20FCF75AFE0121D5
:103BC0000C20FCF756FE00210D20FCF752FE0021D0
:103BD0000F20FCF74EFE00211020FCF74AFE0721C3
:103BE0001120FCF746FE00211220FCF742FE0021C6
:103BF0001320FCF73EFE01210720FCF73AFE32209D
:103C000001F064FB41F290411020FCF732FE40F2DB
:103C100027211120FCF72DFE322001F057FB8A21CD
:103C20001220FCF726FE322001F050FB4FF4D05159
:103C30001320FCF71EFE06212920FCF71AFE0D2199
:103C40002B20FCF716FE322001F040FB0021202043
:103C5000FCF70FFE00212120FCF70BFE322001F0C3
:103C600035FB0021302000E074E0FCF702FE40F25A
:103C700004613120FCF7FDFD40F205313220FCF7F4
:103C8000F8FD00213520FCF7F4FD40F6094136200F
:103C9000FCF7EFFD4FF401713720FCF7EAFD40F22D
:103CA00001313820FCF7E5FD40F207713920FCF7BF
:103CB000E0FD00213C20FCF7DCFD40F60A213D2020
:103CC000FCF7D7FD322001F001FB00215020FCF76A
:103CD000D0FDEF215120FCF7CCFD00215220FCF754
:103CE000C8FD40F23F115320FCF7C3FD4FF42741BC
:103CF0006020FCF7BEFD01216120FCF7BAFD002128
:103D00006A20FCF7B6FD00218020FCF7B2FD0021FF
:103D10008120FCF7AEFD00218220FCF7AAFD0021E6
:103D20008320FCF7A6FD00218420FCF7A2FD0021E2
:103D30008520FCF79EFD10219020FCF79AFD4FF4A2
:103D4000C0619220FCF795FD40F233110720FCF78B
:103D500090FD24E611488088A0F5134120397DD1DB
:103D60000846FCF786FD4FF480710120FCF781FDC9
:103D70004FF4E0610220FCF77CFD41F230010320AA
:103D8000FCF777FD00210420FCF773FD40F20221CF
:103D90000820FCF76EFD0021092001E03C300020E6
:103DA000FCF767FD00210A20FCF763FD01210C20D0
:103DB000FCF75FFD00210D20FCF75BFD00210F20CB
:103DC000FCF757FD322001F081FA40F20111072083
:103DD000FCF74FFD322001F079FA4FF486511020A4
:103DE000FCF747FD07211120FCF743FD4FF48871D4
:103DF0001220FCF73EFD4FF430611320FCF739FD33
:103E000000212920FCF735FD44F210012B20FCF79E
:103E100030FD00215020FCF72CFDEF215120FCF754
:103E200028FD00215220FCF724FD40F23F115320D1
:103E3000FCF71FFD4FF41C516020FCF71AFD012117
:103E40006120FCF716FD00216A20FCF712FD00211D
:103E50008020FCF70EFD0021812000E030E0FCF71F
:103E600008FD00218220FCF704FD00218320FCF7DF
:103E700000FD00218420FCF7FCFC00218520FCF7DC
:103E8000F8FC10219020FCF7F4FC00219220FCF7B4
:103E9000F0FC01219320FCF7ECFC4FF48871952095
:103EA000FCF7E7FC00219720FCF7E3FC00219820B9
:103EB000FCF7DFFC40F273110720FCF7DAFC6EE53B
:103EC000FE488088A0F5134131397DD141F21401BB
:103ED000E720FCF7CEFC4FF480710120FCF7C9FC11
:103EE0004FF400710220FCF7C4FC41F238010320BA
:103EF000FCF7BFFC40F202210820FCF7BAFC0021CD
:103F00000920FCF7B6FC00210A20FCF7B2FC0021D6
:103F10000C20FCF7AEFC00210D20FCF7AAFC0021D0
:103F20000F20FCF7A6FC00211020FCF7A2FC0721C3
:103F30001120FCF79EFC00211220FCF79AFC0021C6
:103F40001320FCF796FCC82001F0C0F941F2906103
:103F50001020FCF78EFC40F227211120FCF789FC91
:103F6000322001F0B3F90C211220FCF782FC322040
:103F700001F0ACF94FF400611320FCF77AFC112139
:103F80002920FCF776FC0B212B20FCF772FC322059
:103F900001F09CF900212020FCF76BFC40F23F115E
:103FA0002120FCF766FC00213020FCF762FC4FF476
:103FB00083713120FCF75DFC00213220FCF759FCB5
:103FC0004FF40171352000E064E0FCF752FC41F24F
:103FD0000A613620FCF74DFC40F207713720FCF7F0
:103FE00048FC4FF483713820FCF743FC40F2077122
:103FF0003920FCF73EFC40F202413C20FCF739FC42
:1040000040F60F413D20FCF734FC00215020FCF726
:1040100030FCEF215120FCF72CFC00215220FCF752
:1040200028FC40F23F115320FCF723FC4FF41C51B5
:104030006020FCF71EFC01216120FCF71AFC002126
:104040006A20FCF716FC00218020FCF712FC0021FE
:104050008120FCF70EFC00218220FCF70AFC0021E5
:104060008320FCF706FC00218420FCF702FC0021E1
:104070008520FCF7FEFB10219020FCF7FAFB4FF4A3
:10408000C0619220FCF7F5FB40F233110720FCF7EA
:10409000F0FB84E489488088A0F5A84108397DD1E7
:1040A0004FF480710120FCF7E4FB4FF4E061022043
:1040B000FCF7DFFB41F230010320FCF7DAFB0021C3
:1040C0000420FCF7D6FB40F207210820FCF7D1FBC7
:1040D00000210920FCF7CDFB00210A20FCF7C9FBD9
:1040E00000210C20FCF7C5FB00210D20FCF7C1FBD3
:1040F00000210F20FCF7BDFB142001F0E7F841F28E
:10410000B0611020FCF7B5FB01211120FCF7B1FBD9
:1041100001211720FCF7ADFB4FF49C711220FCF736
:10412000A8FB4FF400611320FCF7A3FB0921292011
:10413000FCF79FFB09212A20FCF79BFB0021A42010
:10414000FCF797FB00215020FCF793FBEF21512057
:10415000FCF78FFB00215220FCF78BFB40F23F1154
:104160005320FCF786FB4FF41C516020FCF781FBC9
:1041700001216120FCF77DFB00216A20FCF779FB1F
:1041800000218020FCF775FB00218120FCF771FBEA
:1041900000218220FCF76DFB002100E024E0832059
:1041A000FCF767FB00218420FCF763FB00218520DE
:1041B000FCF75FFB13219020FCF75BFB00219220B2
:1041C000FCF757FB03219320FCF753FB4FF4887156
:1041D0009520FCF74EFB40F273110720FCF749FBDA
:1041E000322001F073F8B9E434488088A0F5A85172
:1041F000053965D10720FCF73CFB322001F066F859
:104200004FF48E711220FCF734FB0121A420FCF73F
:1042100030FB0F210820FCF72CFB08210A20FCF7BB
:1042200028FB08210D20FCF724FB40F20771302009
:10423000FCF71FFB07213120FCF71BFB40F2036159
:104240003220FCF716FB4FF4E0613320FCF711FB42
:1042500040F202213420FCF70CFB02213520FCF750
:1042600008FB41F60F713620FCF703FB40F20771A3
:104270003720FCF7FEFA00213820FCF7FAFA00217B
:104280003920FCF7F6FA40F207713A20FCF7F1FA10
:1042900000213B20FCF7EDFA07213C20FCF7E9FA6E
:1042A00000213D20FCF7E5FA322001F00FF8012152
:1042B0000720FCF7DEFA0121172002E03C30002045
:1042C000AEE0FCF7D6FA322001F000F84FF4BD5111
:1042D0001020FCF7CEFA40F217211120FCF7C9FAA2
:1042E0004FF48F711220FCF7C4FA4FF47061132061
:1042F000FCF7BFFA00212A20FCF7BBFA0A2129208B
:10430000FCF7B7FA4FF49F711220FCF7B2FA0021C4
:104310005020FCF7AEFAEF215120FCF7AAFA002159
:104320005220FCF7A6FA40F23F115320FCF7A1FA05
:104330004FF41C516020FCF79CFA01216120FCF72E
:1043400098FA00216A20FCF794FA00218020FCF7FB
:1043500090FA00218120FCF78CFA00218220FCF7E2
:1043600088FA00218320FCF784FA00218420FCF7DE
:1043700080FA00218520FCF77CFA13219020FCF7BD
:1043800078FA4FF440719220FCF773FA05219320DC
:10439000FCF76FFA00219520FCF76BFA00219720BB
:1043A000FCF767FA00219820FCF763FA4FF480715C
:1043B0000120FCF75EFA4FF4E0610220FCF759FAA5
:1043C00041F238010320FCF754FA00210420FCF7E5
:1043D00050FA00210C20FCF74CFA00210F20FCF7CA
:1043E00048FA00212020FCF744FA00212120FCF7A4
:1043F00040FA21210720FCF73CFA142000F066FF68
:1044000061210720FCF735FA142000F05FFF40F22D
:1044100073110720FCF72DFA142000F057FF58E322
:10442000FE488088A0F5354105397DD10846FCF766
:1044300020FA00210846FCF71CFA00210846FCF788
:1044400018FA00210846FCF714FA0121A420FCF711
:1044500010FA142000F03AFF4FF41C516020FCF7D2
:1044600008FA40F202210820FCF703FA4FF4057124
:104470003020FCF7FEF943F215713120FCF7F9F911
:1044800040F204613220FCF7F4F940F61661332063
:10449000FCF7EFF942F211213420FCF7EAF94FF46E
:1044A000A8513520FCF7E5F948F207513620FCF712
:1044B000E0F941F207413720FCF7DBF941F2034113
:1044C0003820FCF7D6F920213920FCF7D2F91A213F
:1044D0009020FCF7CEF900211020FCF7CAF9072143
:1044E0001120FCF7C6F900211220FCF7C2F90021C7
:1044F0001320FCF7BEF9142000F0E8FE4FF4E6614B
:104500001020FCF7B6F940F237111120FCF7B1F991
:10451000142000F0DBFE4FF4DC711220FCF7A9F947
:10452000142000F0D3FE00E083E04FF4706113200C
:10453000FCF79FF980212A20FCF79BF948212920CC
:10454000FCF797F9142000F0C1FE4FF480710120B0
:10455000FCF78FF94FF4E0610220FCF78AF941F291
:1045600038010320FCF785F940F202210820FCF70E
:1045700080F900210A20FCF77CF900210C20FCF7CF
:1045800078F900210D20FCF774F930210E20FCF79A
:1045900070F900215020FCF76CF9EF215120FCF755
:1045A00068F900215220FCF764F940F23F115320D2
:1045B000FCF75FF94FF41C516020FCF75AF9012118
:1045C0006120FCF756F900216A20FCF752F911210D
:1045D0009020FCF74EF94FF4C0619220FCF749F9A6
:1045E00040F202419320FCF744F902219420FCF7A9
:1045F00040F9142000F06AFE01210720FCF739F988
:10460000142000F063FE61210720FCF732F940F22C
:1046100073110720FCF72DF900212020FCF729F960
:1046200000212120FCF725F922210020FCF721F9A7
:104630004FE27A488088A0F5454105397DD108468A
:10464000FCF717F900210846FCF713F9142000F0D5
:104650003DFE00210846FCF70CF900210846FCF756
:1046600008F900210846FCF704F900210846FCF788
:1046700000F90121A420FCF7FCF8142000F026FE2C
:104680004FF41C516020FCF7F4F840F606010820B6
:10469000FCF7EFF840F203713020FCF7EAF8012153
:1046A0003120FCF7E6F804213220FCF7E2F84FF461
:1046B00081713320FCF7DDF84FF440713420FCF7B2
:1046C000D8F840F203113520FCF7D3F81F2136202B
:1046D000FCF7CFF840F203713720FCF7CAF801214C
:1046E0003820FCF7C6F804213920FCF7C2F8152160
:1046F0009020FCF7BEF84FF482611020FCF7B9F867
:1047000040F247211120FCF7B4F84FF4DE7112207B
:10471000FCF7AFF84FF460611320FCF7AAF878209B
:1047200000F0D4FD4FF480710120FCF7A2F84FF4A3
:1047300000710220FCF79DF800E050E041F23001EA
:104740000320FCF796F808210A20FCF792F80021D4
:104750000C20FCF78EF820210E20FCF78AF80021AF
:104760000F20FCF786F800212020FCF782F80021BA
:104770002120FCF77EF83D212A20FCF77AF814204E
:1047800000F0A4FD2D212920FCF773F80021502012
:10479000FCF76FF84DF2EF015120FCF76AF80021A9
:1047A0005220FCF766F840F23F115320FCF761F805
:1047B00000216120FCF75DF800216A20FCF759F820
:1047C0004FF440719220FCF754F805219320FCF738
:1047D00050F84FF480710720FCF74BF879E10F484F
:1047E0008088A0F58A4131397ED101210020FCF773
:1047F00040F80A2000F06AFD41F228611020FCF721
:1048000038F80E211220FCF734F840F63921132035
:10481000FCF72FF80A2000F059FD01E03C300020A1
:1048200040211120FCF725F850211520FCF721F834
:104830000A2000F04BFD1E211220FCF71AF80A2076
:1048400000F044FD4FF4B1511020FCF712F842F68D
:1048500039211320FCF70DF80A2000F037FD4FF442
:1048600080710120FCF705F84FF440710220FCF73D
:1048700000F841F238010320FBF7FBFF40F2022170
:104880000820FBF7F6FF08210A20FBF7F2FF0021C2
:104890003020FBF7EEFF40F202413120FBF7E9FF49
:1048A0004FF483713220FBF7E4FF40F203513320D1
:1048B000FBF7DFFF4FF482713420FBF7DAFF40F2A1
:1048C00001313520FBF7D5FF40F207713620FBF7A9
:1048D000D0FF40F205313720FBF7CBFF4FF40271D8
:1048E0003820FBF7C6FF00E03EE040F60B713920B0
:1048F000FBF7BFFF02214120FBF7BBFF4FF41C5128
:104900006020FBF7B6FF01216120FBF7B2FF4FF4F7
:1049100004719020FBF7ADFF4FF485719220FBF7F7
:10492000A8FF04219320FBF7A4FF4FF48071A0207F
:10493000FBF79FFF01210720FBF79BFF21210720A9
:10494000FBF797FF23210720FBF793FF3321072075
:10495000FBF78FFF40F233110720FBF78AFF00219E
:10496000A020FBF786FFB4E0FE488088A0F58A41CE
:104970003539F8D130211520FBF77BFF10219A2023
:10498000FBF777FF20211120FBF773FF43F228414B
:104990001020FBF76EFF02211220FBF76AFF41F2A5
:1049A00038011320FBF765FF282000F08FFC12214F
:1049B0000846FBF75EFF282000F088FC43F2204108
:1049C0001020FBF756FF43F238011320FBF751FF8D
:1049D000462000F07BFC00213020FBF74AFF40F22C
:1049E00002413120FBF745FF40F207313220FBF74F
:1049F00040FF4FF441713320FBF73BFF042134208B
:104A0000FBF737FF40F201413520FBF732FF40F260
:104A100007713620FBF72DFF40F205313720FBF7F9
:104A200028FF4FF4C2613820FBF723FF4FF4C26127
:104A30003920FBF71EFF4FF480710120FBF719FFAF
:104A40004FF440710220FBF714FF41F230010320C4
:104A5000FBF70FFF40F608010820FBF70AFF0821CB
:104A60000A20FBF706FF4FF41C516020FBF701FF03
:104A700001216120FBF7FDFE4FF49F719020FBF7B1
:104A8000F8FE4FF480719220FBF7F3FE4FF4807133
:104A90009320FBF7EEFE4FF44051A020FBF7E9FE18
:104AA0001021A320FBF7E5FE01210720FBF7E1FE23
:104AB00021210720FBF7DDFE23210720FBF7D9FE8C
:104AC00033210720FBF7D5FE40F233110720FBF717
:104AD000D0FE0020FCF790FA0120A34908604FF6B1
:104AE000FF70FCF707FC21B000BD2DE9FC4F054627
:104AF0000E4617469846DDF82C9000200190994804
:104B00008088A0F5D041043929D1964880790128C0
:104B100025D1AB46354693480088C01B401E86B25F
:104B2000474690480088A0EB0B00401E1FFA80F813
:104B300000208C4988712A2048812B208881434697
:104B40003A4631462846CDF80090FFF7CEFF0120C7
:104B5000844988712B2048812A2088811DE0781B98
:104B6000401C80B20190344615E021462846FBF7F0
:104B7000B3FEFBF795FE4FF0000A07E04FF0D84078
:104B8000A0F880900AF101001FFA80FA019882458E
:104B9000F4DB601C84B24445E7DDBDE8FC8F2DE901
:104BA000F84F07460D4690469946DDF828B0A8EB29
:104BB0000700401C1FFA80FAA9EB0500401C80B2D8
:104BC0000090002415E0281981B23846FBF784FED6
:104BD000FBF766FE002608E004FB0A603BF81000C5
:104BE0006249088006F1010086B25645F4DB601C7C
:104BF00084B200988442E6DBBDE8F88F2DE9FF4FD0
:104C000084B081468A460020039002900698A0EB6B
:104C100009050798A0EB0A06CDF80490CDF800A08E
:104C2000002D01DD012705E00DB9002702E04FF05E
:104C3000FF376D42002E02DD4FF0010806E016B985
:104C40004FF0000802E04FF0FF387642B54201DD38
:104C50002C4600E034464FF0000B21E0009A91B260
:104C6000019A90B2FCF72EF9039828440390029819
:104C7000304402900398A04205DD0398001B039086
:104C80000198384401900298A04205DD0298001B6B
:104C900002900098404400900BF101001FFA80FB45
:104CA000601C8345DADD08B0BDE8F08FF0B504463E
:104CB0000D4616461F462B46324629462046FFF72C
:104CC0009DFF3B46224629462046FFF797FF3B467D
:104CD000324639462046FFF791FF3B463246294689
:104CE0003046FFF78BFFF0BD2DE9F04306460F4637
:104CF0009046002445460320A0EB480944E07A1B77
:104D000091B2321990B2FCF7DDF83A1B91B27219E8
:104D100090B2FCF7D7F83A1991B2721990B2FCF739
:104D2000D1F87A1991B2321990B2FCF7CBF87A190E
:104D300091B2321B90B2FCF7C5F83A1991B2721BCE
:104D400090B2FCF7BFF87A1B91B2321B90B2FCF71D
:104D5000B9F83A1B91B2721B90B2FCF7B3F8641C1D
:104D600006E000003C300020BC8240428000006C25
:104D7000B9F1000F03DAA000801D814404E0601B3C
:104D800080000A3081446D1EAC42B8DDBDE8F0837E
:104D90002DE9F84F80460E4617461C46B34620467E
:104DA000E31704EB5373DB1021464FEAE47C04EB7A
:104DB0005C7C4FEAEC0CB4EBCC0C02D04FF0010C55
:104DC00001E04FF0000C6344224604EBD27C4FEA32
:104DD0006C0C03FB0CF3DBB20093A7F12000C7B20D
:104DE000002556E00C2C07D107EB47009F4901EB4B
:104DF000800010F8059013E0102C05D19C4800EBC2
:104E0000071010F805900BE0182C07D107EBC7002E
:104E1000984901EB800010F8059001E0BDE8F88F9B
:104E20004FF0000A2FE019F0800F06D09248028858
:104E300031464046FCF754F807E00A9828B98F48F5
:104E4000028831464046FCF74BF84FEA49604FEA8A
:104E50001069701C86B28A484088B04200DCDDE7E9
:104E6000A6EB0B00A0420AD15E4608F101001FFA32
:104E700080F883480088404500DCCFE706E00AF16F
:104E8000010000F0FF0ABAF1080FCCDB00BF681C7C
:104E9000C5B200988542A5DB00BFBFE710B502464A
:104EA000012000E050430B00A1F10104E1B2F9D16F
:104EB00010BD2DE9FF4F81B0074691461E460E9D5D
:104EC0004FF0000A002439E0301B401EC1B20A2016
:104ED000FFF7E4FFB9FBF0F00A21B0FBF1F201FBB0
:104EE0001208BAF1000F16D1701EA04213DDB8F1FE
:104EF000000F0ED10020AB4605EBDB71491001FB22
:104F00000471009088B22B4620220299FFF740FFDF
:104F100012E04FF0010A0020AB4605EBDB714910AF
:104F200001FB0471009088B208F13001CAB22B462F
:104F30000299FFF72DFF00BF601CC4B2B442C3DB6F
:104F400005B0BDE8F08F2DE9FF4F82B006469246CE
:104F50001F46DDE90F480020019000254DE0781B39
:104F6000401EC1B20A20FFF799FFBAFBF0F00A21F8
:104F7000B0FBF1F201FB1209019850BB781EA84268
:104F800027DDB9F1000F22D118F0800F0FD008F003
:104F90000100A34604EBDB71491001FB05610090A1
:104FA00088B2234630220399FFF7F2FE0EE008F0A4
:104FB0000100A34604EBDB71491001FB0561009081
:104FC00088B2234620220399FFF7E2FE13E0012076
:104FD000019008F00100A34604EBDB71491001FBCE
:104FE0000561009088B209F13001CAB223460399E5
:104FF000FFF7CEFE00BF681CC5B2BD42AFDB06B0F6
:10500000BDE8F08F2DE9F84704460D4690469946D5
:10501000DDE9096704F0FF0A08EB04001FFA80F8D5
:1050200009EB05001FFA80F916E0444502DB5446FF
:10503000A81985B24D4500DB14E0002000903A78B5
:10504000334629462046FFF7A3FE304606EBD071D3
:1050500004EB61018CB27F1C38787E2802DC387842
:105060002028E2DA00BFBDE8F88700007894000845
:10507000EC980008DC9E0008180000201A000020B0
:105080003C3000201CB50121112001F08BF81C20C0
:10509000009000208DF8040003208DF80500012009
:1050A0008DF807006946354800F0F0FA01200090BD
:1050B00002208DF807006946314800F0E7FA1CBD70
:1050C00010B5044614B101202E4908702D4800780F
:1050D000002837D01021294800F03AFB78B1082188
:1050E000264800F035FB50B10421244800F030FB85
:1050F00028B10121224800F02BFB012822D10A20EF
:1051000000F0E4F800201F49087010211B4800F04F
:105110001FFB08B9012010BD0821184800F018FB3A
:1051200008B90220F7E70421144800F011FB08B980
:105130000320F0E70121124800F00AFB01281BD1EF
:105140000420E8E710210D4800F002FB012813D1EC
:1051500008210A4800F0FCFA01280DD10421074873
:1051600000F0F6FA012807D10121054800F0F0FA15
:1051700010B90120034908700020CCE7001002405C
:10518000000002401C0000207FB505460C460121AE
:10519000022001F050F80295ADF804400020ADF86F
:1051A0000600ADF80C0001A9164801F026FC01220A
:1051B0001146144802F0C2F80121124801F0A6FC81
:1051C0001D208DF8000001208DF8010003208DF8CE
:1051D000020001208DF80300684600F064F97FBDED
:1051E00010B50121074802F0C0F8012804D1064893
:1051F0000078401C044908700121024802F0C6F8FA
:1052000010BD0000000400400000002010B504465E
:105210006FF0040000F095F9E11704EB5171C1F350
:10522000C701384A11701046007800EB4001C1EB0D
:10523000C0104FF6FF7101EAC0003349088010BD6D
:105240000146304A12784A434FF0E0235A61002267
:105250009A611A46126942F001021A6100BF4FF0CA
:10526000E022106910F0010F02D010F4803FF6D058
:105270004FF0E022126922F001024FF0E0231A61A0
:1052800000229A61704701461F4A12884A434FF034
:10529000E0235A6100229A611A46126942F0010223
:1052A0001A6100BF4FF0E022106910F0010F02D028
:1052B00010F4803FF6D04FF0E022126922F0010294
:1052C0004FF0E0231A6100229A61704770B50446DE
:1052D0004FF4077094FBF0F0C6B24FF4077094FBE4
:1052E000F0F100FB114085B205E04FF40770FFF7C5
:1052F000CAFF701EC6B2002EF7D115B12846FFF7BF
:10530000C2FF70BD1E00002020000020014600BF2B
:10531000704700BF4D4A128812F0400FFAD0C2B257
:105320004A4B9A80704710B588B004460121084660
:1053300000F038FF0121102000F08EFF0722092124
:10534000434800F02EFA07220A21414800F029FACA
:105350004FF4C060069002208DF81C008DF81D00EF
:1053600000208DF81E0001208DF81F0006A9384886
:1053700000F08CF902940020ADF80C00ADF80E009E
:10538000ADF81000ADF814000C20ADF8120002A921
:105390002E4801F0C2F801212C4801F046F94021C5
:1053A0002A4801F02AFA012240F22551274801F04B
:1053B000F2F925208DF8040003208DF805008DF802
:1053C000060001208DF8070001A800F06CF808B075
:1053D00010BD10B540F225511C4801F017FA10B36A
:1053E0001A4801F051F9C4B21A48008810F4004F6D
:1053F0002BD11848008810F4804F0CD00A2C03D011
:1054000000201449088020E01248008840F4004041
:105410001049088019E00D2C06D10E48008840F490
:1054200080400C49088010E00A480088C0F30D0055
:1054300009490C5407480088401C06490880084662
:105440000088C72801DD0020088010BD0010014041
:1054500000000240240000204A3000200948804714
:1054600009480047FEE7FEE7FEE7FEE7FEE7FEE746
:10547000FEE7FEE7FEE7FEE704480549054A064B5E
:1054800070470000CF06000889010008783100202D
:1054900078370020783300207833002033490143E7
:1054A000334A1160704770B5002100230F22C47881
:1054B00024B32F4C246804F4E064C4F5E064C4F31E
:1054C0000721C1F10404E3B20A4144789C40E1B2EF
:1054D0008478144021430C07210E264C0578615531
:1054E000047804F01F050124AC4005786D114FF0DD
:1054F000E02606EB8505C5F8004109E0047804F0D4
:105500001F040125A5401C4C0678761144F826504E
:1055100070BD1A4A0A400243154B1B1F1A607047A0
:1055200039B1134A121D12680243114B1B1D1A6038
:1055300006E00F4A121D126882430D4B1B1D1A60B4
:105540007047042808D14FF0E021096941F00401B7
:105550004FF0E022116107E04FF0E021096921F0EE
:1055600004014FF0E0221161704700000000FA05CD
:105570000CED00E000E400E080E100E080FFFF1FB0
:1055800010B504469848844208D10121084600F02D
:1055900074FE0021012000F070FE76E09348844202
:1055A00008D10121022000F068FE0021022000F055
:1055B00064FE6AE08E48844208D10121042000F094
:1055C0005CFE0021042000F058FE5EE08948844221
:1055D00008D10121082000F050FE0021082000F031
:1055E0004CFE52E08448844208D10121102000F092
:1055F00044FE0021102000F040FE46E07F48844237
:1056000008D10121202000F038FE0021202000F0E8
:1056100034FE3AE07A48844208D10121402000F06B
:105620002CFE0021402000F028FE2EE07548844228
:1056300008D10121802000F020FE0021802000F010
:105640001CFE22E07048844208D10121801500F040
:1056500014FE0021A01500F010FE16E06B488442F5
:1056600008D10121401500F008FE0021601500F06E
:1056700004FE0AE06648844207D10121001500F0CB
:10568000FCFD0021201500F0F8FD10BDF0B50A4624
:1056900000210023002400BF3DE0012505FA01F3AD
:1056A000156805EA03049C4234D105684F000326BF
:1056B000BE40B543056015794E00B54006683543D8
:1056C00005601579012D02D01579022D16D1856856
:1056D0004F000326BE40B543856055794E00B54066
:1056E000866835438560456801268E40B543456030
:1056F000456896798E40B6B235434560C5684F001F
:105700000326BE40B543C560D5794E00B540C66896
:105710003543C560491C1029BFD3F0BD4FF6FF715A
:1057200001600021017141718171C171704708B53B
:105730004FF480320092009A0A430092009AC261AC
:10574000C161009AC261C2690092C269009208BD3B
:105750000246002013690B4201D0012000E0002026
:1057600070470146086980B27047024600205369BD
:105770000B4201D0012000E000207047014648693B
:1057800080B2704701837047418370470AB101833B
:1057900000E0418370474161704742694A4042617D
:1057A0007047F0B5002300244D07ED0E02FA05F313
:1057B000CE1000F1200555F826504E07F70E0F26A3
:1057C000BE40B543CF1000F1200646F82750CE105A
:1057D00000F1200555F8265045EA0304CE1000F1EB
:1057E000200545F82640F0BD0000024000040240BC
:1057F00000080240000C0240001002400014024069
:1058000000180240001C0240002002400024024018
:105810000028024030B943F2DB014FF0204242F849
:10582000201005E043F2D2014FF0204242F8201050
:105830006FF07042411C4FF0204343F82120114685
:105840001A4602EB8002C2F804117047D0E9011237
:105850001143C268114302691143426911438269CD
:105860001143C2691143026A1143426A1143826AB9
:105870001143C26A1143026B11434FF02043026887
:1058800043F822108168082908D11A46016852F8A5
:10589000211041F04001026843F82210416B096871
:1058A000426B526841EA0211426B926841EA02215E
:1058B000426B928941EA0241426B128A41EA0251EB
:1058C000426B127D41EA0261426B926911430268A8
:1058D000521C4FF0204343F82210C16AB1F5804FAB
:1058E0001AD1816B0968826B526841EA0211826B9E
:1058F000926841EA0221826B128A41EA0251826B6C
:10590000127D41EA0261826B92691143026803EBE6
:105910008202C2F8041108E06FF070414FF020439A
:10592000026803EB8202C2F8041170470021016093
:105930000221416000218160C1600161416181619A
:10594000C16101624FF480514162490081620021CE
:10595000C1620163F84941638163704751B14FF0FF
:10596000204252F8202042F001024FF0204343F839
:10597000202009E04FF0204252F82020EF4B1A403F
:105980004FF0204343F82020704710280AD11821F7
:105990004FF020421166402151664FF0FC31916674
:1059A000D16610E01821E64A11604FF040014FF037
:1059B0002042C2F884104FF0FC31E24A11604FF0EF
:1059C0002042C2F88C10704730B50021002200231D
:1059D000446844F0080485682C43C5682C43056975
:1059E0002C43456944EA4524856944EA4531C46944
:1059F0002468C5696D6844EA0524C5692D8944EAAF
:105A00000544C5692D7B44EA0562046A2468056A79
:105A10006D6844EA0524056A2D8944EA0544056A4F
:105A20002D7B44EA05630468102C05D14FF0204417
:105A30002166A266E36607E0C14C21604FF0204476
:105A4000C4F88820C04C236030BD102101600021C3
:105A500041608160C160016141618161FC21C26975
:105A60001160C2695160C2699160C269D160026A05
:105A70001160026A5160026A9160026AD1607047E7
:105A800099B1102808D14FF02042126E42F0040262
:105A90004FF020431A661DE0A94A126842F0040242
:105AA0004FF02043C3F8802014E0102809D14FF0B4
:105AB0002042126EA14BDB1E1A404FF020431A66A3
:105AC00008E09F4A1268A14B02EA03024FF020430C
:105AD000C3F88020704799B1102808D14FF02042B8
